{
  "contractName": "ProductQuality",
  "abi": [
    {
      "anonymous": false,
      "inputs": [
        {
          "indexed": true,
          "internalType": "address",
          "name": "previousOwner",
          "type": "address"
        },
        {
          "indexed": true,
          "internalType": "address",
          "name": "newOwner",
          "type": "address"
        }
      ],
      "name": "OwnershipTransferred",
      "type": "event"
    },
    {
      "anonymous": false,
      "inputs": [
        {
          "indexed": false,
          "internalType": "address",
          "name": "productOwner",
          "type": "address"
        },
        {
          "components": [
            {
              "internalType": "uint256",
              "name": "productId",
              "type": "uint256"
            },
            {
              "internalType": "string",
              "name": "productBatch",
              "type": "string"
            },
            {
              "internalType": "string",
              "name": "verificationName",
              "type": "string"
            },
            {
              "internalType": "string",
              "name": "result",
              "type": "string"
            },
            {
              "internalType": "bool",
              "name": "isValid",
              "type": "bool"
            },
            {
              "internalType": "uint256",
              "name": "timestamp",
              "type": "uint256"
            }
          ],
          "indexed": false,
          "internalType": "struct ProductQuality.QualityInfo",
          "name": "productQualityInfo",
          "type": "tuple"
        }
      ],
      "name": "WarningQualityTestFailed",
      "type": "event"
    },
    {
      "inputs": [
        {
          "internalType": "string",
          "name": "_name",
          "type": "string"
        },
        {
          "internalType": "string",
          "name": "_origin",
          "type": "string"
        },
        {
          "internalType": "uint256",
          "name": "_quantity",
          "type": "uint256"
        },
        {
          "internalType": "enum ProductRegistry.Unit",
          "name": "_unit",
          "type": "uint8"
        }
      ],
      "name": "addProduct",
      "outputs": [],
      "stateMutability": "nonpayable",
      "type": "function"
    },
    {
      "inputs": [
        {
          "internalType": "uint256",
          "name": "_productId",
          "type": "uint256"
        }
      ],
      "name": "getProduct",
      "outputs": [
        {
          "internalType": "uint256",
          "name": "",
          "type": "uint256"
        },
        {
          "internalType": "string",
          "name": "",
          "type": "string"
        },
        {
          "internalType": "string",
          "name": "",
          "type": "string"
        },
        {
          "internalType": "uint256",
          "name": "",
          "type": "uint256"
        },
        {
          "internalType": "enum ProductRegistry.Unit",
          "name": "",
          "type": "uint8"
        },
        {
          "internalType": "uint256",
          "name": "",
          "type": "uint256"
        }
      ],
      "stateMutability": "view",
      "type": "function"
    },
    {
      "inputs": [],
      "name": "getProductCount",
      "outputs": [
        {
          "internalType": "uint256",
          "name": "",
          "type": "uint256"
        }
      ],
      "stateMutability": "view",
      "type": "function"
    },
    {
      "inputs": [
        {
          "internalType": "uint256",
          "name": "_productId",
          "type": "uint256"
        }
      ],
      "name": "getProductOwner",
      "outputs": [
        {
          "internalType": "address",
          "name": "",
          "type": "address"
        }
      ],
      "stateMutability": "view",
      "type": "function"
    },
    {
      "inputs": [
        {
          "internalType": "uint256",
          "name": "_productId",
          "type": "uint256"
        },
        {
          "internalType": "uint256",
          "name": "_stageIndex",
          "type": "uint256"
        }
      ],
      "name": "getProductStage",
      "outputs": [
        {
          "internalType": "uint256",
          "name": "",
          "type": "uint256"
        },
        {
          "internalType": "enum SupplyChain.SupplyChainStage",
          "name": "",
          "type": "uint8"
        },
        {
          "internalType": "address",
          "name": "",
          "type": "address"
        },
        {
          "internalType": "uint256",
          "name": "",
          "type": "uint256"
        }
      ],
      "stateMutability": "view",
      "type": "function"
    },
    {
      "inputs": [
        {
          "internalType": "uint256",
          "name": "_productId",
          "type": "uint256"
        }
      ],
      "name": "getProductStagesCount",
      "outputs": [
        {
          "internalType": "uint256",
          "name": "",
          "type": "uint256"
        }
      ],
      "stateMutability": "view",
      "type": "function"
    },
    {
      "inputs": [
        {
          "internalType": "address",
          "name": "_user",
          "type": "address"
        }
      ],
      "name": "getUserProfile",
      "outputs": [
        {
          "internalType": "string",
          "name": "userName",
          "type": "string"
        },
        {
          "internalType": "enum UserProfiles.Role",
          "name": "userRole",
          "type": "uint8"
        }
      ],
      "stateMutability": "view",
      "type": "function"
    },
    {
      "inputs": [],
      "name": "owner",
      "outputs": [
        {
          "internalType": "address",
          "name": "",
          "type": "address"
        }
      ],
      "stateMutability": "view",
      "type": "function"
    },
    {
      "inputs": [
        {
          "internalType": "uint256",
          "name": "",
          "type": "uint256"
        },
        {
          "internalType": "uint256",
          "name": "",
          "type": "uint256"
        }
      ],
      "name": "productStages",
      "outputs": [
        {
          "internalType": "uint256",
          "name": "productId",
          "type": "uint256"
        },
        {
          "internalType": "enum SupplyChain.SupplyChainStage",
          "name": "stage",
          "type": "uint8"
        },
        {
          "internalType": "address",
          "name": "productOwner",
          "type": "address"
        },
        {
          "internalType": "uint256",
          "name": "timestamp",
          "type": "uint256"
        }
      ],
      "stateMutability": "view",
      "type": "function"
    },
    {
      "inputs": [
        {
          "internalType": "uint256",
          "name": "",
          "type": "uint256"
        }
      ],
      "name": "products",
      "outputs": [
        {
          "internalType": "uint256",
          "name": "productId",
          "type": "uint256"
        },
        {
          "internalType": "string",
          "name": "name",
          "type": "string"
        },
        {
          "internalType": "string",
          "name": "origin",
          "type": "string"
        },
        {
          "internalType": "uint256",
          "name": "quantity",
          "type": "uint256"
        },
        {
          "internalType": "enum ProductRegistry.Unit",
          "name": "unit",
          "type": "uint8"
        },
        {
          "internalType": "uint256",
          "name": "timestamp",
          "type": "uint256"
        }
      ],
      "stateMutability": "view",
      "type": "function"
    },
    {
      "inputs": [
        {
          "internalType": "uint256",
          "name": "",
          "type": "uint256"
        },
        {
          "internalType": "uint256",
          "name": "",
          "type": "uint256"
        }
      ],
      "name": "qualityInfos",
      "outputs": [
        {
          "internalType": "uint256",
          "name": "productId",
          "type": "uint256"
        },
        {
          "internalType": "string",
          "name": "productBatch",
          "type": "string"
        },
        {
          "internalType": "string",
          "name": "verificationName",
          "type": "string"
        },
        {
          "internalType": "string",
          "name": "result",
          "type": "string"
        },
        {
          "internalType": "bool",
          "name": "isValid",
          "type": "bool"
        },
        {
          "internalType": "uint256",
          "name": "timestamp",
          "type": "uint256"
        }
      ],
      "stateMutability": "view",
      "type": "function"
    },
    {
      "inputs": [
        {
          "internalType": "uint256",
          "name": "_productId",
          "type": "uint256"
        },
        {
          "internalType": "enum SupplyChain.SupplyChainStage",
          "name": "_stage",
          "type": "uint8"
        },
        {
          "internalType": "address",
          "name": "_productOwner",
          "type": "address"
        }
      ],
      "name": "recordStage",
      "outputs": [],
      "stateMutability": "nonpayable",
      "type": "function"
    },
    {
      "inputs": [
        {
          "internalType": "string",
          "name": "_name",
          "type": "string"
        },
        {
          "internalType": "string",
          "name": "_location",
          "type": "string"
        },
        {
          "internalType": "enum UserProfiles.Role",
          "name": "_role",
          "type": "uint8"
        },
        {
          "internalType": "address",
          "name": "_user",
          "type": "address"
        }
      ],
      "name": "setUserProfile",
      "outputs": [],
      "stateMutability": "nonpayable",
      "type": "function"
    },
    {
      "inputs": [
        {
          "internalType": "address",
          "name": "newOwner",
          "type": "address"
        }
      ],
      "name": "transferOwnership",
      "outputs": [],
      "stateMutability": "nonpayable",
      "type": "function"
    },
    {
      "inputs": [
        {
          "internalType": "address",
          "name": "",
          "type": "address"
        }
      ],
      "name": "userProfile",
      "outputs": [
        {
          "internalType": "string",
          "name": "name",
          "type": "string"
        },
        {
          "internalType": "string",
          "name": "location",
          "type": "string"
        },
        {
          "internalType": "enum UserProfiles.Role",
          "name": "role",
          "type": "uint8"
        }
      ],
      "stateMutability": "view",
      "type": "function"
    },
    {
      "inputs": [
        {
          "internalType": "uint256",
          "name": "_productId",
          "type": "uint256"
        },
        {
          "internalType": "string",
          "name": "_productBatch",
          "type": "string"
        },
        {
          "internalType": "string",
          "name": "_testName",
          "type": "string"
        },
        {
          "internalType": "string",
          "name": "_result",
          "type": "string"
        },
        {
          "internalType": "bool",
          "name": "_isValid",
          "type": "bool"
        }
      ],
      "name": "addQualityInfo",
      "outputs": [],
      "stateMutability": "nonpayable",
      "type": "function"
    },
    {
      "inputs": [
        {
          "internalType": "uint256",
          "name": "_productId",
          "type": "uint256"
        }
      ],
      "name": "getQualityInfoCount",
      "outputs": [
        {
          "internalType": "uint256",
          "name": "",
          "type": "uint256"
        }
      ],
      "stateMutability": "view",
      "type": "function"
    },
    {
      "inputs": [
        {
          "internalType": "uint256",
          "name": "_productId",
          "type": "uint256"
        },
        {
          "internalType": "uint256",
          "name": "_indexInfo",
          "type": "uint256"
        }
      ],
      "name": "getProductQualityInfo",
      "outputs": [
        {
          "internalType": "uint256",
          "name": "",
          "type": "uint256"
        },
        {
          "internalType": "string",
          "name": "",
          "type": "string"
        },
        {
          "internalType": "string",
          "name": "",
          "type": "string"
        },
        {
          "internalType": "uint256",
          "name": "",
          "type": "uint256"
        }
      ],
      "stateMutability": "view",
      "type": "function"
    },
    {
      "inputs": [
        {
          "components": [
            {
              "internalType": "uint256",
              "name": "productId",
              "type": "uint256"
            },
            {
              "internalType": "string",
              "name": "productBatch",
              "type": "string"
            },
            {
              "internalType": "string",
              "name": "verificationName",
              "type": "string"
            },
            {
              "internalType": "string",
              "name": "result",
              "type": "string"
            },
            {
              "internalType": "bool",
              "name": "isValid",
              "type": "bool"
            },
            {
              "internalType": "uint256",
              "name": "timestamp",
              "type": "uint256"
            }
          ],
          "internalType": "struct ProductQuality.QualityInfo",
          "name": "_productQualityInfo",
          "type": "tuple"
        }
      ],
      "name": "warnProductOwner",
      "outputs": [],
      "stateMutability": "nonpayable",
      "type": "function"
    }
  ],
  "bytecode": "0x608060405234801561000f575f80fd5b50335f806101000a81548173ffffffffffffffffffffffffffffffffffffffff021916908373ffffffffffffffffffffffffffffffffffffffff160217905550612d198061005c5f395ff3fe608060405234801561000f575f80fd5b506004361061011f575f3560e01c80637acc0b20116100ab578063bc765f591161006f578063bc765f5914610364578063f2fde38b14610397578063f5e44746146103b3578063f71ff2ec146103cf578063fe542c9b146104025761011f565b80637acc0b201461028f5780638da5cb5b146102c4578063987ee156146102e25780639ee69d4814610313578063b9db15b41461032f5761011f565b806345ac0610116100f257806345ac0610146101ea5780634a348da914610206578063696788eb146102245780636b67d11e146102405780637944608a146102735761011f565b80630458faaa1461012357806307a51429146101585780631c8e896214610188578063314a877a146101ba575b5f80fd5b61013d60048036038101906101389190611c1e565b610432565b60405161014f96959493929190611d0f565b60405180910390f35b610172600480360381019061016d9190611d83565b610622565b60405161017f9190611dae565b60405180910390f35b6101a2600480360381019061019d9190611e21565b610688565b6040516101b193929190611ebf565b60405180910390f35b6101d460048036038101906101cf9190611d83565b6107c6565b6040516101e19190611dae565b60405180910390f35b61020460048036038101906101ff9190612051565b61082c565b005b61020e6109ea565b60405161021b9190611dae565b60405180910390f35b61023e60048036038101906102399190612210565b6109f6565b005b61025a60048036038101906102559190611c1e565b610a4c565b60405161026a9493929190612257565b60405180910390f35b61028d600480360381019061028891906122cb565b610d2f565b005b6102a960048036038101906102a49190611d83565b610eb6565b6040516102bb969594939291906123ad565b60405180910390f35b6102cc611015565b6040516102d99190612429565b60405180910390f35b6102fc60048036038101906102f79190611e21565b611038565b60405161030a929190612442565b60405180910390f35b61032d60048036038101906103289190612470565b6111f2565b005b61034960048036038101906103449190611d83565b6113ac565b60405161035b969594939291906123ad565b60405180910390f35b61037e60048036038101906103799190611c1e565b6115d4565b60405161038e9493929190612581565b60405180910390f35b6103b160048036038101906103ac9190611e21565b611646565b005b6103cd60048036038101906103c891906125e7565b6117c5565b005b6103e960048036038101906103e49190611c1e565b6119af565b6040516103f99493929190612581565b60405180910390f35b61041c60048036038101906104179190611d83565b611b57565b6040516104299190612429565b60405180910390f35b6005602052815f5260405f20818154811061044b575f80fd5b905f5260205f2090600602015f9150915050805f01549080600101805461047190612664565b80601f016020809104026020016040519081016040528092919081815260200182805461049d90612664565b80156104e85780601f106104bf576101008083540402835291602001916104e8565b820191905f5260205f20905b8154815290600101906020018083116104cb57829003601f168201915b5050505050908060020180546104fd90612664565b80601f016020809104026020016040519081016040528092919081815260200182805461052990612664565b80156105745780601f1061054b57610100808354040283529160200191610574565b820191905f5260205f20905b81548152906001019060200180831161055757829003601f168201915b50505050509080600301805461058990612664565b80601f01602080910402602001604051908101604052809291908181526020018280546105b590612664565b80156106005780601f106105d757610100808354040283529160200191610600565b820191905f5260205f20905b8154815290600101906020018083116105e357829003601f168201915b505050505090806004015f9054906101000a900460ff16908060050154905086565b5f81600380549050811061066b576040517f08c379a0000000000000000000000000000000000000000000000000000000008152600401610662906126de565b60405180910390fd5b60045f8481526020019081526020015f2080549050915050919050565b6001602052805f5260405f205f91509050805f0180546106a790612664565b80601f01602080910402602001604051908101604052809291908181526020018280546106d390612664565b801561071e5780601f106106f55761010080835404028352916020019161071e565b820191905f5260205f20905b81548152906001019060200180831161070157829003601f168201915b50505050509080600101805461073390612664565b80601f016020809104026020016040519081016040528092919081815260200182805461075f90612664565b80156107aa5780601f10610781576101008083540402835291602001916107aa565b820191905f5260205f20905b81548152906001019060200180831161078d57829003601f168201915b505050505090806002015f9054906101000a900460ff16905083565b5f81600380549050811061080f576040517f08c379a0000000000000000000000000000000000000000000000000000000008152600401610806906126de565b60405180910390fd5b60055f8481526020019081526020015f2080549050915050919050565b5f8054906101000a900473ffffffffffffffffffffffffffffffffffffffff1673ffffffffffffffffffffffffffffffffffffffff163373ffffffffffffffffffffffffffffffffffffffff16146108b9576040517f08c379a00000000000000000000000000000000000000000000000000000000081526004016108b09061276c565b60405180910390fd5b5f60405180606001604052808681526020018581526020018460068111156108e4576108e3611e4c565b5b81525090508060015f8473ffffffffffffffffffffffffffffffffffffffff1673ffffffffffffffffffffffffffffffffffffffff1681526020019081526020015f205f820151815f01908161093a9190612927565b5060208201518160010190816109509190612927565b506040820151816002015f6101000a81548160ff0219169083600681111561097b5761097a611e4c565b5b0217905550905050600282908060018154018082558091505060019003905f5260205f20015f9091909190916101000a81548173ffffffffffffffffffffffffffffffffffffffff021916908373ffffffffffffffffffffffffffffffffffffffff1602179055505050505050565b5f600380549050905090565b8060800151610a49575f610a0c825f0151611b57565b90507fa328acc01ec2207faaa196469dbdc199178aa701eb85f7be6940510e03b8137e8183604051610a3f929190612af0565b60405180910390a1505b50565b5f6060805f856003805490508110610a99576040517f08c379a0000000000000000000000000000000000000000000000000000000008152600401610a90906126de565b60405180910390fd5b60055f8881526020019081526020015f20805490508610610aef576040517f08c379a0000000000000000000000000000000000000000000000000000000008152600401610ae690612b68565b60405180910390fd5b5f60055f8981526020019081526020015f208781548110610b1357610b12612b86565b5b905f5260205f2090600602016040518060c00160405290815f8201548152602001600182018054610b4390612664565b80601f0160208091040260200160405190810160405280929190818152602001828054610b6f90612664565b8015610bba5780601f10610b9157610100808354040283529160200191610bba565b820191905f5260205f20905b815481529060010190602001808311610b9d57829003601f168201915b50505050508152602001600282018054610bd390612664565b80601f0160208091040260200160405190810160405280929190818152602001828054610bff90612664565b8015610c4a5780601f10610c2157610100808354040283529160200191610c4a565b820191905f5260205f20905b815481529060010190602001808311610c2d57829003601f168201915b50505050508152602001600382018054610c6390612664565b80601f0160208091040260200160405190810160405280929190818152602001828054610c8f90612664565b8015610cda5780601f10610cb157610100808354040283529160200191610cda565b820191905f5260205f20905b815481529060010190602001808311610cbd57829003601f168201915b50505050508152602001600482015f9054906101000a900460ff161515151581526020016005820154815250509050805f0151816040015182606001518360a001519550955095509550505092959194509250565b5f8054906101000a900473ffffffffffffffffffffffffffffffffffffffff1673ffffffffffffffffffffffffffffffffffffffff163373ffffffffffffffffffffffffffffffffffffffff1614610dbc576040517f08c379a0000000000000000000000000000000000000000000000000000000008152600401610db39061276c565b60405180910390fd5b5f60038054905090505f4290505f6040518060c00160405280848152602001888152602001878152602001868152602001856008811115610e0057610dff611e4c565b5b8152602001838152509050600381908060018154018082558091505060019003905f5260205f2090600602015f909190919091505f820151815f01556020820151816001019081610e519190612927565b506040820151816002019081610e679190612927565b50606082015181600301556080820151816004015f6101000a81548160ff02191690836008811115610e9c57610e9b611e4c565b5b021790555060a08201518160050155505050505050505050565b60038181548110610ec5575f80fd5b905f5260205f2090600602015f91509050805f015490806001018054610eea90612664565b80601f0160208091040260200160405190810160405280929190818152602001828054610f1690612664565b8015610f615780601f10610f3857610100808354040283529160200191610f61565b820191905f5260205f20905b815481529060010190602001808311610f4457829003601f168201915b505050505090806002018054610f7690612664565b80601f0160208091040260200160405190810160405280929190818152602001828054610fa290612664565b8015610fed5780601f10610fc457610100808354040283529160200191610fed565b820191905f5260205f20905b815481529060010190602001808311610fd057829003601f168201915b505050505090806003015490806004015f9054906101000a900460ff16908060050154905086565b5f8054906101000a900473ffffffffffffffffffffffffffffffffffffffff1681565b60605f8060015f8573ffffffffffffffffffffffffffffffffffffffff1673ffffffffffffffffffffffffffffffffffffffff1681526020019081526020015f206040518060600160405290815f8201805461109390612664565b80601f01602080910402602001604051908101604052809291908181526020018280546110bf90612664565b801561110a5780601f106110e15761010080835404028352916020019161110a565b820191905f5260205f20905b8154815290600101906020018083116110ed57829003601f168201915b5050505050815260200160018201805461112390612664565b80601f016020809104026020016040519081016040528092919081815260200182805461114f90612664565b801561119a5780601f106111715761010080835404028352916020019161119a565b820191905f5260205f20905b81548152906001019060200180831161117d57829003601f168201915b50505050508152602001600282015f9054906101000a900460ff1660068111156111c7576111c6611e4c565b5b60068111156111d9576111d8611e4c565b5b815250509050805f015181604001519250925050915091565b3360055f6111ff83611038565b90508091505081600681111561121857611217611e4c565b5b81600681111561122b5761122a611e4c565b5b1461126b576040517f08c379a000000000000000000000000000000000000000000000000000000000815260040161126290612bfd565b60405180910390fd5b8760038054905081106112b3576040517f08c379a00000000000000000000000000000000000000000000000000000000081526004016112aa906126de565b60405180910390fd5b5f4290505f6040518060c001604052808c81526020018b81526020018a8152602001898152602001881515815260200183815250905060055f8c81526020019081526020015f2081908060018154018082558091505060019003905f5260205f2090600602015f909190919091505f820151815f0155602082015181600101908161133e9190612927565b5060408201518160020190816113549190612927565b50606082015181600301908161136a9190612927565b506080820151816004015f6101000a81548160ff02191690831515021790555060a08201518160050155505061139f816109f6565b5050505050505050505050565b5f6060805f805f8660038054905081106113fb576040517f08c379a00000000000000000000000000000000000000000000000000000000081526004016113f2906126de565b60405180910390fd5b5f600389815481106114105761140f612b86565b5b905f5260205f2090600602016040518060c00160405290815f820154815260200160018201805461144090612664565b80601f016020809104026020016040519081016040528092919081815260200182805461146c90612664565b80156114b75780601f1061148e576101008083540402835291602001916114b7565b820191905f5260205f20905b81548152906001019060200180831161149a57829003601f168201915b505050505081526020016002820180546114d090612664565b80601f01602080910402602001604051908101604052809291908181526020018280546114fc90612664565b80156115475780601f1061151e57610100808354040283529160200191611547565b820191905f5260205f20905b81548152906001019060200180831161152a57829003601f168201915b5050505050815260200160038201548152602001600482015f9054906101000a900460ff16600881111561157e5761157d611e4c565b5b60088111156115905761158f611e4c565b5b81526020016005820154815250509050805f015181602001518260400151836060015184608001518560a00151975097509750975097509750505091939550919395565b6004602052815f5260405f2081815481106115ed575f80fd5b905f5260205f2090600302015f9150915050805f015490806001015f9054906101000a900460ff16908060010160019054906101000a900473ffffffffffffffffffffffffffffffffffffffff16908060020154905084565b5f8054906101000a900473ffffffffffffffffffffffffffffffffffffffff1673ffffffffffffffffffffffffffffffffffffffff163373ffffffffffffffffffffffffffffffffffffffff16146116d3576040517f08c379a00000000000000000000000000000000000000000000000000000000081526004016116ca9061276c565b60405180910390fd5b5f73ffffffffffffffffffffffffffffffffffffffff168173ffffffffffffffffffffffffffffffffffffffff160361170a575f80fd5b8073ffffffffffffffffffffffffffffffffffffffff165f8054906101000a900473ffffffffffffffffffffffffffffffffffffffff1673ffffffffffffffffffffffffffffffffffffffff167f8be0079c531659141344cd1fd0a4f28419497f9722a3daafe3b4186f6b6457e060405160405180910390a3805f806101000a81548173ffffffffffffffffffffffffffffffffffffffff021916908373ffffffffffffffffffffffffffffffffffffffff16021790555050565b5f8054906101000a900473ffffffffffffffffffffffffffffffffffffffff1673ffffffffffffffffffffffffffffffffffffffff163373ffffffffffffffffffffffffffffffffffffffff1614611852576040517f08c379a00000000000000000000000000000000000000000000000000000000081526004016118499061276c565b60405180910390fd5b82600380549050811061189a576040517f08c379a0000000000000000000000000000000000000000000000000000000008152600401611891906126de565b60405180910390fd5b5f60405180608001604052808681526020018560078111156118bf576118be611e4c565b5b81526020018473ffffffffffffffffffffffffffffffffffffffff16815260200142815250905060045f8681526020019081526020015f2081908060018154018082558091505060019003905f5260205f2090600302015f909190919091505f820151815f01556020820151816001015f6101000a81548160ff021916908360078111156119505761194f611e4c565b5b021790555060408201518160010160016101000a81548173ffffffffffffffffffffffffffffffffffffffff021916908373ffffffffffffffffffffffffffffffffffffffff1602179055506060820151816002015550505050505050565b5f805f808560038054905081106119fb576040517f08c379a00000000000000000000000000000000000000000000000000000000081526004016119f2906126de565b60405180910390fd5b60045f8881526020019081526020015f20805490508610611a51576040517f08c379a0000000000000000000000000000000000000000000000000000000008152600401611a4890612c65565b60405180910390fd5b5f60045f8981526020019081526020015f208781548110611a7557611a74612b86565b5b905f5260205f2090600302016040518060800160405290815f8201548152602001600182015f9054906101000a900460ff166007811115611ab957611ab8611e4c565b5b6007811115611acb57611aca611e4c565b5b81526020016001820160019054906101000a900473ffffffffffffffffffffffffffffffffffffffff1673ffffffffffffffffffffffffffffffffffffffff1673ffffffffffffffffffffffffffffffffffffffff1681526020016002820154815250509050805f01518160200151826040015183606001519550955095509550505092959194509250565b5f816003805490508110611ba0576040517f08c379a0000000000000000000000000000000000000000000000000000000008152600401611b97906126de565b60405180910390fd5b5f611baa84610622565b90505f611bc385600184611bbe9190612cb0565b6119af565b909192509091505080915050809350505050919050565b5f604051905090565b5f80fd5b5f80fd5b5f819050919050565b611bfd81611beb565b8114611c07575f80fd5b50565b5f81359050611c1881611bf4565b92915050565b5f8060408385031215611c3457611c33611be3565b5b5f611c4185828601611c0a565b9250506020611c5285828601611c0a565b9150509250929050565b611c6581611beb565b82525050565b5f81519050919050565b5f82825260208201905092915050565b5f5b83811015611ca2578082015181840152602081019050611c87565b5f8484015250505050565b5f601f19601f8301169050919050565b5f611cc782611c6b565b611cd18185611c75565b9350611ce1818560208601611c85565b611cea81611cad565b840191505092915050565b5f8115159050919050565b611d0981611cf5565b82525050565b5f60c082019050611d225f830189611c5c565b8181036020830152611d348188611cbd565b90508181036040830152611d488187611cbd565b90508181036060830152611d5c8186611cbd565b9050611d6b6080830185611d00565b611d7860a0830184611c5c565b979650505050505050565b5f60208284031215611d9857611d97611be3565b5b5f611da584828501611c0a565b91505092915050565b5f602082019050611dc15f830184611c5c565b92915050565b5f73ffffffffffffffffffffffffffffffffffffffff82169050919050565b5f611df082611dc7565b9050919050565b611e0081611de6565b8114611e0a575f80fd5b50565b5f81359050611e1b81611df7565b92915050565b5f60208284031215611e3657611e35611be3565b5b5f611e4384828501611e0d565b91505092915050565b7f4e487b71000000000000000000000000000000000000000000000000000000005f52602160045260245ffd5b60078110611e8a57611e89611e4c565b5b50565b5f819050611e9a82611e79565b919050565b5f611ea982611e8d565b9050919050565b611eb981611e9f565b82525050565b5f6060820190508181035f830152611ed78186611cbd565b90508181036020830152611eeb8185611cbd565b9050611efa6040830184611eb0565b949350505050565b5f80fd5b5f80fd5b7f4e487b71000000000000000000000000000000000000000000000000000000005f52604160045260245ffd5b611f4082611cad565b810181811067ffffffffffffffff82111715611f5f57611f5e611f0a565b5b80604052505050565b5f611f71611bda565b9050611f7d8282611f37565b919050565b5f67ffffffffffffffff821115611f9c57611f9b611f0a565b5b611fa582611cad565b9050602081019050919050565b828183375f83830152505050565b5f611fd2611fcd84611f82565b611f68565b905082815260208101848484011115611fee57611fed611f06565b5b611ff9848285611fb2565b509392505050565b5f82601f83011261201557612014611f02565b5b8135612025848260208601611fc0565b91505092915050565b6007811061203a575f80fd5b50565b5f8135905061204b8161202e565b92915050565b5f805f806080858703121561206957612068611be3565b5b5f85013567ffffffffffffffff81111561208657612085611be7565b5b61209287828801612001565b945050602085013567ffffffffffffffff8111156120b3576120b2611be7565b5b6120bf87828801612001565b93505060406120d08782880161203d565b92505060606120e187828801611e0d565b91505092959194509250565b5f80fd5b5f80fd5b6120fe81611cf5565b8114612108575f80fd5b50565b5f81359050612119816120f5565b92915050565b5f60c08284031215612134576121336120ed565b5b61213e60c0611f68565b90505f61214d84828501611c0a565b5f83015250602082013567ffffffffffffffff8111156121705761216f6120f1565b5b61217c84828501612001565b602083015250604082013567ffffffffffffffff8111156121a05761219f6120f1565b5b6121ac84828501612001565b604083015250606082013567ffffffffffffffff8111156121d0576121cf6120f1565b5b6121dc84828501612001565b60608301525060806121f08482850161210b565b60808301525060a061220484828501611c0a565b60a08301525092915050565b5f6020828403121561222557612224611be3565b5b5f82013567ffffffffffffffff81111561224257612241611be7565b5b61224e8482850161211f565b91505092915050565b5f60808201905061226a5f830187611c5c565b818103602083015261227c8186611cbd565b905081810360408301526122908185611cbd565b905061229f6060830184611c5c565b95945050505050565b600981106122b4575f80fd5b50565b5f813590506122c5816122a8565b92915050565b5f805f80608085870312156122e3576122e2611be3565b5b5f85013567ffffffffffffffff811115612300576122ff611be7565b5b61230c87828801612001565b945050602085013567ffffffffffffffff81111561232d5761232c611be7565b5b61233987828801612001565b935050604061234a87828801611c0a565b925050606061235b878288016122b7565b91505092959194509250565b6009811061237857612377611e4c565b5b50565b5f81905061238882612367565b919050565b5f6123978261237b565b9050919050565b6123a78161238d565b82525050565b5f60c0820190506123c05f830189611c5c565b81810360208301526123d28188611cbd565b905081810360408301526123e68187611cbd565b90506123f56060830186611c5c565b612402608083018561239e565b61240f60a0830184611c5c565b979650505050505050565b61242381611de6565b82525050565b5f60208201905061243c5f83018461241a565b92915050565b5f6040820190508181035f83015261245a8185611cbd565b90506124696020830184611eb0565b9392505050565b5f805f805f60a0868803121561248957612488611be3565b5b5f61249688828901611c0a565b955050602086013567ffffffffffffffff8111156124b7576124b6611be7565b5b6124c388828901612001565b945050604086013567ffffffffffffffff8111156124e4576124e3611be7565b5b6124f088828901612001565b935050606086013567ffffffffffffffff81111561251157612510611be7565b5b61251d88828901612001565b925050608061252e8882890161210b565b9150509295509295909350565b6008811061254c5761254b611e4c565b5b50565b5f81905061255c8261253b565b919050565b5f61256b8261254f565b9050919050565b61257b81612561565b82525050565b5f6080820190506125945f830187611c5c565b6125a16020830186612572565b6125ae604083018561241a565b6125bb6060830184611c5c565b95945050505050565b600881106125d0575f80fd5b50565b5f813590506125e1816125c4565b92915050565b5f805f606084860312156125fe576125fd611be3565b5b5f61260b86828701611c0a565b935050602061261c868287016125d3565b925050604061262d86828701611e0d565b9150509250925092565b7f4e487b71000000000000000000000000000000000000000000000000000000005f52602260045260245ffd5b5f600282049050600182168061267b57607f821691505b60208210810361268e5761268d612637565b5b50919050565b7f50726f6475637420646f6573206e6f74206578697374000000000000000000005f82015250565b5f6126c8601683611c75565b91506126d382612694565b602082019050919050565b5f6020820190508181035f8301526126f5816126bc565b9050919050565b7f4f6e6c7920746865206f776e65722063616e20706572666f726d2074686973205f8201527f616374696f6e0000000000000000000000000000000000000000000000000000602082015250565b5f612756602683611c75565b9150612761826126fc565b604082019050919050565b5f6020820190508181035f8301526127838161274a565b9050919050565b5f819050815f5260205f209050919050565b5f6020601f8301049050919050565b5f82821b905092915050565b5f600883026127e67fffffffffffffffffffffffffffffffffffffffffffffffffffffffffffffffff826127ab565b6127f086836127ab565b95508019841693508086168417925050509392505050565b5f819050919050565b5f61282b61282661282184611beb565b612808565b611beb565b9050919050565b5f819050919050565b61284483612811565b61285861285082612832565b8484546127b7565b825550505050565b5f90565b61286c612860565b61287781848461283b565b505050565b5b8181101561289a5761288f5f82612864565b60018101905061287d565b5050565b601f8211156128df576128b08161278a565b6128b98461279c565b810160208510156128c8578190505b6128dc6128d48561279c565b83018261287c565b50505b505050565b5f82821c905092915050565b5f6128ff5f19846008026128e4565b1980831691505092915050565b5f61291783836128f0565b9150826002028217905092915050565b61293082611c6b565b67ffffffffffffffff81111561294957612948611f0a565b5b6129538254612664565b61295e82828561289e565b5f60209050601f83116001811461298f575f841561297d578287015190505b612987858261290c565b8655506129ee565b601f19841661299d8661278a565b5f5b828110156129c45784890151825560018201915060208501945060208101905061299f565b868310156129e157848901516129dd601f8916826128f0565b8355505b6001600288020188555050505b505050505050565b6129ff81611beb565b82525050565b5f82825260208201905092915050565b5f612a1f82611c6b565b612a298185612a05565b9350612a39818560208601611c85565b612a4281611cad565b840191505092915050565b612a5681611cf5565b82525050565b5f60c083015f830151612a715f8601826129f6565b5060208301518482036020860152612a898282612a15565b91505060408301518482036040860152612aa38282612a15565b91505060608301518482036060860152612abd8282612a15565b9150506080830151612ad26080860182612a4d565b5060a0830151612ae560a08601826129f6565b508091505092915050565b5f604082019050612b035f83018561241a565b8181036020830152612b158184612a5c565b90509392505050565b7f5175616c69747920696e666f20646f6573206e6f7420657869737400000000005f82015250565b5f612b52601b83611c75565b9150612b5d82612b1e565b602082019050919050565b5f6020820190508181035f830152612b7f81612b46565b9050919050565b7f4e487b71000000000000000000000000000000000000000000000000000000005f52603260045260245ffd5b7f596f7520646f6e277420686176652074686520726571756972656420726f6c655f82015250565b5f612be7602083611c75565b9150612bf282612bb3565b602082019050919050565b5f6020820190508181035f830152612c1481612bdb565b9050919050565b7f537461676520646f6573206e6f742065786973740000000000000000000000005f82015250565b5f612c4f601483611c75565b9150612c5a82612c1b565b602082019050919050565b5f6020820190508181035f830152612c7c81612c43565b9050919050565b7f4e487b71000000000000000000000000000000000000000000000000000000005f52601160045260245ffd5b5f612cba82611beb565b9150612cc583611beb565b9250828203905081811115612cdd57612cdc612c83565b5b9291505056fea264697066735822122074261fc5b91a1b07714cd13f8a0e2ee472f23576d37136ffa9246347aa11efdb64736f6c63430008150033",
  "immutableReferences": {},
  "source": "// SPDX-License-Identifier: MIT\r\npragma solidity ^0.8.0;\r\nimport \"./userProfiles.sol\";\r\nimport \"./productRegistry.sol\";\r\nimport \"./supplyChain.sol\";\r\n\r\n/**\r\n * @title ProductQuality\r\n * @dev The ProductQuality contract can store information on quality testing, certifications, etc.\r\n */\r\ncontract ProductQuality is UserProfiles, ProductRegistry, SupplyChain {\r\n  struct QualityInfo {\r\n    uint256 productId;\r\n    string productBatch;\r\n    string verificationName;\r\n    string result;\r\n    bool isValid;\r\n    uint256 timestamp;\r\n  }\r\n\r\n  mapping(uint256 => QualityInfo[]) public qualityInfos;\r\n\r\n  event WarningQualityTestFailed(address productOwner, QualityInfo productQualityInfo);\r\n\r\n  function addQualityInfo(uint256 _productId, string memory _productBatch, string memory _testName, string memory _result, bool _isValid) public \r\n    onlyRole(msg.sender, Role.Laboratory)\r\n    verifyIfProductIdExists(_productId)\r\n  {\r\n    uint256 timestamp = block.timestamp;\r\n    QualityInfo memory newQualityInfo = QualityInfo(_productId, _productBatch, _testName, _result, _isValid, timestamp);\r\n    qualityInfos[_productId].push(newQualityInfo);\r\n    warnProductOwner(newQualityInfo);\r\n  }\r\n\r\n  function getQualityInfoCount(uint256 _productId) public view verifyIfProductIdExists(_productId) returns (uint256) {\r\n    return qualityInfos[_productId].length;\r\n  }\r\n\r\n  function getProductQualityInfo(uint256 _productId, uint256 _indexInfo) public view\r\n    verifyIfProductIdExists(_productId)\r\n    returns (uint256, string memory, string memory, uint256) \r\n  {\r\n    require(_indexInfo < qualityInfos[_productId].length, \"Quality info does not exist\");\r\n    QualityInfo memory info = qualityInfos[_productId][_indexInfo];\r\n    return (info.productId, info.verificationName, info.result, info.timestamp);\r\n  }\r\n\r\n  function warnProductOwner(QualityInfo memory _productQualityInfo) public\r\n  {\r\n    if(_productQualityInfo.isValid) {\r\n      return;\r\n    }\r\n\r\n    address productOwner = getProductOwner(_productQualityInfo.productId);\r\n    emit WarningQualityTestFailed(productOwner, _productQualityInfo);\r\n  }\r\n}",
  "sourcePath": "C:\\Users\\jaded\\Documents\\LAB\\foodtraceability\\smart-contracts\\contracts\\productQuality.sol",
  "compiler": {
    "name": "solc",
    "version": "0.8.21+commit.d9974bed.Emscripten.clang"
  },
  "schemaVersion": "3.4.15",
  "updatedAt": "2023-09-05T06:19:28.323Z",
  "devdoc": {
    "details": "The ProductQuality contract can store information on quality testing, certifications, etc.",
    "kind": "dev",
    "methods": {
      "transferOwnership(address)": {
        "details": "Allows the current owner to transfer control of the contract to a newOwner.",
        "params": {
          "newOwner": "The address to transfer ownership to."
        }
      }
    },
    "title": "ProductQuality",
    "version": 1
  },
  "userdoc": {
    "kind": "user",
    "methods": {},
    "version": 1
  }
}