{
  "contractName": "SupplyChain",
  "abi": [
    {
      "anonymous": false,
      "inputs": [
        {
          "indexed": true,
          "internalType": "address",
          "name": "previousOwner",
          "type": "address"
        },
        {
          "indexed": true,
          "internalType": "address",
          "name": "newOwner",
          "type": "address"
        }
      ],
      "name": "OwnershipTransferred",
      "type": "event"
    },
    {
      "inputs": [
        {
          "internalType": "string",
          "name": "_name",
          "type": "string"
        },
        {
          "internalType": "string",
          "name": "_origin",
          "type": "string"
        },
        {
          "internalType": "uint256",
          "name": "_quantity",
          "type": "uint256"
        },
        {
          "internalType": "enum ProductRegistry.Unit",
          "name": "_unit",
          "type": "uint8"
        }
      ],
      "name": "addProduct",
      "outputs": [],
      "stateMutability": "nonpayable",
      "type": "function"
    },
    {
      "inputs": [
        {
          "internalType": "uint256",
          "name": "_productId",
          "type": "uint256"
        }
      ],
      "name": "getProduct",
      "outputs": [
        {
          "internalType": "uint256",
          "name": "",
          "type": "uint256"
        },
        {
          "internalType": "string",
          "name": "",
          "type": "string"
        },
        {
          "internalType": "string",
          "name": "",
          "type": "string"
        },
        {
          "internalType": "uint256",
          "name": "",
          "type": "uint256"
        },
        {
          "internalType": "enum ProductRegistry.Unit",
          "name": "",
          "type": "uint8"
        },
        {
          "internalType": "uint256",
          "name": "",
          "type": "uint256"
        }
      ],
      "stateMutability": "view",
      "type": "function"
    },
    {
      "inputs": [],
      "name": "getProductCount",
      "outputs": [
        {
          "internalType": "uint256",
          "name": "",
          "type": "uint256"
        }
      ],
      "stateMutability": "view",
      "type": "function"
    },
    {
      "inputs": [],
      "name": "owner",
      "outputs": [
        {
          "internalType": "address",
          "name": "",
          "type": "address"
        }
      ],
      "stateMutability": "view",
      "type": "function"
    },
    {
      "inputs": [
        {
          "internalType": "uint256",
          "name": "",
          "type": "uint256"
        },
        {
          "internalType": "uint256",
          "name": "",
          "type": "uint256"
        }
      ],
      "name": "productStages",
      "outputs": [
        {
          "internalType": "uint256",
          "name": "productId",
          "type": "uint256"
        },
        {
          "internalType": "enum SupplyChain.SupplyChainStage",
          "name": "stage",
          "type": "uint8"
        },
        {
          "internalType": "address",
          "name": "productOwner",
          "type": "address"
        },
        {
          "internalType": "uint256",
          "name": "timestamp",
          "type": "uint256"
        }
      ],
      "stateMutability": "view",
      "type": "function"
    },
    {
      "inputs": [
        {
          "internalType": "uint256",
          "name": "",
          "type": "uint256"
        }
      ],
      "name": "products",
      "outputs": [
        {
          "internalType": "uint256",
          "name": "productId",
          "type": "uint256"
        },
        {
          "internalType": "string",
          "name": "name",
          "type": "string"
        },
        {
          "internalType": "string",
          "name": "origin",
          "type": "string"
        },
        {
          "internalType": "uint256",
          "name": "quantity",
          "type": "uint256"
        },
        {
          "internalType": "enum ProductRegistry.Unit",
          "name": "unit",
          "type": "uint8"
        },
        {
          "internalType": "uint256",
          "name": "timestamp",
          "type": "uint256"
        }
      ],
      "stateMutability": "view",
      "type": "function"
    },
    {
      "inputs": [
        {
          "internalType": "address",
          "name": "newOwner",
          "type": "address"
        }
      ],
      "name": "transferOwnership",
      "outputs": [],
      "stateMutability": "nonpayable",
      "type": "function"
    },
    {
      "inputs": [
        {
          "internalType": "uint256",
          "name": "_productId",
          "type": "uint256"
        },
        {
          "internalType": "enum SupplyChain.SupplyChainStage",
          "name": "_stage",
          "type": "uint8"
        },
        {
          "internalType": "address",
          "name": "_productOwner",
          "type": "address"
        }
      ],
      "name": "recordStage",
      "outputs": [],
      "stateMutability": "nonpayable",
      "type": "function"
    },
    {
      "inputs": [
        {
          "internalType": "uint256",
          "name": "_productId",
          "type": "uint256"
        }
      ],
      "name": "getProductStagesCount",
      "outputs": [
        {
          "internalType": "uint256",
          "name": "",
          "type": "uint256"
        }
      ],
      "stateMutability": "view",
      "type": "function"
    },
    {
      "inputs": [
        {
          "internalType": "uint256",
          "name": "_productId",
          "type": "uint256"
        },
        {
          "internalType": "uint256",
          "name": "_stageIndex",
          "type": "uint256"
        }
      ],
      "name": "getProductStage",
      "outputs": [
        {
          "internalType": "uint256",
          "name": "",
          "type": "uint256"
        },
        {
          "internalType": "enum SupplyChain.SupplyChainStage",
          "name": "",
          "type": "uint8"
        },
        {
          "internalType": "address",
          "name": "",
          "type": "address"
        },
        {
          "internalType": "uint256",
          "name": "",
          "type": "uint256"
        }
      ],
      "stateMutability": "view",
      "type": "function"
    },
    {
      "inputs": [
        {
          "internalType": "uint256",
          "name": "_productId",
          "type": "uint256"
        }
      ],
      "name": "getProductOwner",
      "outputs": [
        {
          "internalType": "address",
          "name": "",
          "type": "address"
        }
      ],
      "stateMutability": "view",
      "type": "function"
    }
  ],
  "bytecode": "0x608060405234801561000f575f80fd5b50335f806101000a81548173ffffffffffffffffffffffffffffffffffffffff021916908373ffffffffffffffffffffffffffffffffffffffff1602179055506118d18061005c5f395ff3fe608060405234801561000f575f80fd5b50600436106100a7575f3560e01c8063b9db15b41161006f578063b9db15b414610168578063bc765f591461019d578063f2fde38b146101d0578063f5e44746146101ec578063f71ff2ec14610208578063fe542c9b1461023b576100a7565b806307a51429146100ab5780634a348da9146100db5780637944608a146100f95780637acc0b20146101155780638da5cb5b1461014a575b5f80fd5b6100c560048036038101906100c09190610e58565b61026b565b6040516100d29190610e92565b60405180910390f35b6100e36102d1565b6040516100f09190610e92565b60405180910390f35b610113600480360381019061010e919061100a565b6102dd565b005b61012f600480360381019061012a9190610e58565b610464565b60405161014196959493929190611193565b60405180910390f35b6101526105c3565b60405161015f919061123f565b60405180910390f35b610182600480360381019061017d9190610e58565b6105e6565b60405161019496959493929190611193565b60405180910390f35b6101b760048036038101906101b29190611258565b61080e565b6040516101c794939291906112dc565b60405180910390f35b6101ea60048036038101906101e59190611349565b610880565b005b61020660048036038101906102019190611397565b6109ff565b005b610222600480360381019061021d9190611258565b610be9565b60405161023294939291906112dc565b60405180910390f35b61025560048036038101906102509190610e58565b610d91565b604051610262919061123f565b60405180910390f35b5f8160018054905081106102b4576040517f08c379a00000000000000000000000000000000000000000000000000000000081526004016102ab90611431565b60405180910390fd5b60025f8481526020019081526020015f2080549050915050919050565b5f600180549050905090565b5f8054906101000a900473ffffffffffffffffffffffffffffffffffffffff1673ffffffffffffffffffffffffffffffffffffffff163373ffffffffffffffffffffffffffffffffffffffff161461036a576040517f08c379a0000000000000000000000000000000000000000000000000000000008152600401610361906114bf565b60405180910390fd5b5f60018054905090505f4290505f6040518060c001604052808481526020018881526020018781526020018681526020018560088111156103ae576103ad611120565b5b8152602001838152509050600181908060018154018082558091505060019003905f5260205f2090600602015f909190919091505f820151815f015560208201518160010190816103ff91906116d7565b50604082015181600201908161041591906116d7565b50606082015181600301556080820151816004015f6101000a81548160ff0219169083600881111561044a57610449611120565b5b021790555060a08201518160050155505050505050505050565b60018181548110610473575f80fd5b905f5260205f2090600602015f91509050805f0154908060010180546104989061150a565b80601f01602080910402602001604051908101604052809291908181526020018280546104c49061150a565b801561050f5780601f106104e65761010080835404028352916020019161050f565b820191905f5260205f20905b8154815290600101906020018083116104f257829003601f168201915b5050505050908060020180546105249061150a565b80601f01602080910402602001604051908101604052809291908181526020018280546105509061150a565b801561059b5780601f106105725761010080835404028352916020019161059b565b820191905f5260205f20905b81548152906001019060200180831161057e57829003601f168201915b505050505090806003015490806004015f9054906101000a900460ff16908060050154905086565b5f8054906101000a900473ffffffffffffffffffffffffffffffffffffffff1681565b5f6060805f805f866001805490508110610635576040517f08c379a000000000000000000000000000000000000000000000000000000000815260040161062c90611431565b60405180910390fd5b5f6001898154811061064a576106496117a6565b5b905f5260205f2090600602016040518060c00160405290815f820154815260200160018201805461067a9061150a565b80601f01602080910402602001604051908101604052809291908181526020018280546106a69061150a565b80156106f15780601f106106c8576101008083540402835291602001916106f1565b820191905f5260205f20905b8154815290600101906020018083116106d457829003601f168201915b5050505050815260200160028201805461070a9061150a565b80601f01602080910402602001604051908101604052809291908181526020018280546107369061150a565b80156107815780601f1061075857610100808354040283529160200191610781565b820191905f5260205f20905b81548152906001019060200180831161076457829003601f168201915b5050505050815260200160038201548152602001600482015f9054906101000a900460ff1660088111156107b8576107b7611120565b5b60088111156107ca576107c9611120565b5b81526020016005820154815250509050805f015181602001518260400151836060015184608001518560a00151975097509750975097509750505091939550919395565b6002602052815f5260405f208181548110610827575f80fd5b905f5260205f2090600302015f9150915050805f015490806001015f9054906101000a900460ff16908060010160019054906101000a900473ffffffffffffffffffffffffffffffffffffffff16908060020154905084565b5f8054906101000a900473ffffffffffffffffffffffffffffffffffffffff1673ffffffffffffffffffffffffffffffffffffffff163373ffffffffffffffffffffffffffffffffffffffff161461090d576040517f08c379a0000000000000000000000000000000000000000000000000000000008152600401610904906114bf565b60405180910390fd5b5f73ffffffffffffffffffffffffffffffffffffffff168173ffffffffffffffffffffffffffffffffffffffff1603610944575f80fd5b8073ffffffffffffffffffffffffffffffffffffffff165f8054906101000a900473ffffffffffffffffffffffffffffffffffffffff1673ffffffffffffffffffffffffffffffffffffffff167f8be0079c531659141344cd1fd0a4f28419497f9722a3daafe3b4186f6b6457e060405160405180910390a3805f806101000a81548173ffffffffffffffffffffffffffffffffffffffff021916908373ffffffffffffffffffffffffffffffffffffffff16021790555050565b5f8054906101000a900473ffffffffffffffffffffffffffffffffffffffff1673ffffffffffffffffffffffffffffffffffffffff163373ffffffffffffffffffffffffffffffffffffffff1614610a8c576040517f08c379a0000000000000000000000000000000000000000000000000000000008152600401610a83906114bf565b60405180910390fd5b826001805490508110610ad4576040517f08c379a0000000000000000000000000000000000000000000000000000000008152600401610acb90611431565b60405180910390fd5b5f6040518060800160405280868152602001856007811115610af957610af8611120565b5b81526020018473ffffffffffffffffffffffffffffffffffffffff16815260200142815250905060025f8681526020019081526020015f2081908060018154018082558091505060019003905f5260205f2090600302015f909190919091505f820151815f01556020820151816001015f6101000a81548160ff02191690836007811115610b8a57610b89611120565b5b021790555060408201518160010160016101000a81548173ffffffffffffffffffffffffffffffffffffffff021916908373ffffffffffffffffffffffffffffffffffffffff1602179055506060820151816002015550505050505050565b5f805f80856001805490508110610c35576040517f08c379a0000000000000000000000000000000000000000000000000000000008152600401610c2c90611431565b60405180910390fd5b60025f8881526020019081526020015f20805490508610610c8b576040517f08c379a0000000000000000000000000000000000000000000000000000000008152600401610c829061181d565b60405180910390fd5b5f60025f8981526020019081526020015f208781548110610caf57610cae6117a6565b5b905f5260205f2090600302016040518060800160405290815f8201548152602001600182015f9054906101000a900460ff166007811115610cf357610cf2611120565b5b6007811115610d0557610d04611120565b5b81526020016001820160019054906101000a900473ffffffffffffffffffffffffffffffffffffffff1673ffffffffffffffffffffffffffffffffffffffff1673ffffffffffffffffffffffffffffffffffffffff1681526020016002820154815250509050805f01518160200151826040015183606001519550955095509550505092959194509250565b5f816001805490508110610dda576040517f08c379a0000000000000000000000000000000000000000000000000000000008152600401610dd190611431565b60405180910390fd5b5f610de48461026b565b90505f610dfd85600184610df89190611868565b610be9565b909192509091505080915050809350505050919050565b5f604051905090565b5f80fd5b5f80fd5b5f819050919050565b610e3781610e25565b8114610e41575f80fd5b50565b5f81359050610e5281610e2e565b92915050565b5f60208284031215610e6d57610e6c610e1d565b5b5f610e7a84828501610e44565b91505092915050565b610e8c81610e25565b82525050565b5f602082019050610ea55f830184610e83565b92915050565b5f80fd5b5f80fd5b5f601f19601f8301169050919050565b7f4e487b71000000000000000000000000000000000000000000000000000000005f52604160045260245ffd5b610ef982610eb3565b810181811067ffffffffffffffff82111715610f1857610f17610ec3565b5b80604052505050565b5f610f2a610e14565b9050610f368282610ef0565b919050565b5f67ffffffffffffffff821115610f5557610f54610ec3565b5b610f5e82610eb3565b9050602081019050919050565b828183375f83830152505050565b5f610f8b610f8684610f3b565b610f21565b905082815260208101848484011115610fa757610fa6610eaf565b5b610fb2848285610f6b565b509392505050565b5f82601f830112610fce57610fcd610eab565b5b8135610fde848260208601610f79565b91505092915050565b60098110610ff3575f80fd5b50565b5f8135905061100481610fe7565b92915050565b5f805f806080858703121561102257611021610e1d565b5b5f85013567ffffffffffffffff81111561103f5761103e610e21565b5b61104b87828801610fba565b945050602085013567ffffffffffffffff81111561106c5761106b610e21565b5b61107887828801610fba565b935050604061108987828801610e44565b925050606061109a87828801610ff6565b91505092959194509250565b5f81519050919050565b5f82825260208201905092915050565b5f5b838110156110dd5780820151818401526020810190506110c2565b5f8484015250505050565b5f6110f2826110a6565b6110fc81856110b0565b935061110c8185602086016110c0565b61111581610eb3565b840191505092915050565b7f4e487b71000000000000000000000000000000000000000000000000000000005f52602160045260245ffd5b6009811061115e5761115d611120565b5b50565b5f81905061116e8261114d565b919050565b5f61117d82611161565b9050919050565b61118d81611173565b82525050565b5f60c0820190506111a65f830189610e83565b81810360208301526111b881886110e8565b905081810360408301526111cc81876110e8565b90506111db6060830186610e83565b6111e86080830185611184565b6111f560a0830184610e83565b979650505050505050565b5f73ffffffffffffffffffffffffffffffffffffffff82169050919050565b5f61122982611200565b9050919050565b6112398161121f565b82525050565b5f6020820190506112525f830184611230565b92915050565b5f806040838503121561126e5761126d610e1d565b5b5f61127b85828601610e44565b925050602061128c85828601610e44565b9150509250929050565b600881106112a7576112a6611120565b5b50565b5f8190506112b782611296565b919050565b5f6112c6826112aa565b9050919050565b6112d6816112bc565b82525050565b5f6080820190506112ef5f830187610e83565b6112fc60208301866112cd565b6113096040830185611230565b6113166060830184610e83565b95945050505050565b6113288161121f565b8114611332575f80fd5b50565b5f813590506113438161131f565b92915050565b5f6020828403121561135e5761135d610e1d565b5b5f61136b84828501611335565b91505092915050565b60088110611380575f80fd5b50565b5f8135905061139181611374565b92915050565b5f805f606084860312156113ae576113ad610e1d565b5b5f6113bb86828701610e44565b93505060206113cc86828701611383565b92505060406113dd86828701611335565b9150509250925092565b7f50726f6475637420646f6573206e6f74206578697374000000000000000000005f82015250565b5f61141b6016836110b0565b9150611426826113e7565b602082019050919050565b5f6020820190508181035f8301526114488161140f565b9050919050565b7f4f6e6c7920746865206f776e65722063616e20706572666f726d2074686973205f8201527f616374696f6e0000000000000000000000000000000000000000000000000000602082015250565b5f6114a96026836110b0565b91506114b48261144f565b604082019050919050565b5f6020820190508181035f8301526114d68161149d565b9050919050565b7f4e487b71000000000000000000000000000000000000000000000000000000005f52602260045260245ffd5b5f600282049050600182168061152157607f821691505b602082108103611534576115336114dd565b5b50919050565b5f819050815f5260205f209050919050565b5f6020601f8301049050919050565b5f82821b905092915050565b5f600883026115967fffffffffffffffffffffffffffffffffffffffffffffffffffffffffffffffff8261155b565b6115a0868361155b565b95508019841693508086168417925050509392505050565b5f819050919050565b5f6115db6115d66115d184610e25565b6115b8565b610e25565b9050919050565b5f819050919050565b6115f4836115c1565b611608611600826115e2565b848454611567565b825550505050565b5f90565b61161c611610565b6116278184846115eb565b505050565b5b8181101561164a5761163f5f82611614565b60018101905061162d565b5050565b601f82111561168f576116608161153a565b6116698461154c565b81016020851015611678578190505b61168c6116848561154c565b83018261162c565b50505b505050565b5f82821c905092915050565b5f6116af5f1984600802611694565b1980831691505092915050565b5f6116c783836116a0565b9150826002028217905092915050565b6116e0826110a6565b67ffffffffffffffff8111156116f9576116f8610ec3565b5b611703825461150a565b61170e82828561164e565b5f60209050601f83116001811461173f575f841561172d578287015190505b61173785826116bc565b86555061179e565b601f19841661174d8661153a565b5f5b828110156117745784890151825560018201915060208501945060208101905061174f565b86831015611791578489015161178d601f8916826116a0565b8355505b6001600288020188555050505b505050505050565b7f4e487b71000000000000000000000000000000000000000000000000000000005f52603260045260245ffd5b7f537461676520646f6573206e6f742065786973740000000000000000000000005f82015250565b5f6118076014836110b0565b9150611812826117d3565b602082019050919050565b5f6020820190508181035f830152611834816117fb565b9050919050565b7f4e487b71000000000000000000000000000000000000000000000000000000005f52601160045260245ffd5b5f61187282610e25565b915061187d83610e25565b92508282039050818111156118955761189461183b565b5b9291505056fea2646970667358221220b0a92fc77a656e0a9b4cf9d4fe2c8bcd85f2a69c20f5bd511305b722caeaf3b364736f6c63430008150033",
  "immutableReferences": {},
  "source": "// SPDX-License-Identifier: MIT\r\npragma solidity ^0.8.0;\r\nimport \"./productRegistry.sol\";\r\n\r\n/**\r\n * @title SupplyChain\r\n * @dev The SupplyChain contract manages the traceability of the supply chain. \r\n * It connects the different actors and products throughout the process.\r\n */\r\ncontract SupplyChain is ProductRegistry {\r\n  \r\n  enum SupplyChainStage { Created, Harvested, Processed, Packed, ForSale, Sold, Shipped, Received }\r\n  \r\n  struct ProductStage {\r\n    uint256 productId;\r\n    SupplyChainStage stage;\r\n    address productOwner;\r\n    uint256 timestamp;\r\n  }\r\n  \r\n  mapping(uint256 => ProductStage[]) public productStages;\r\n  \r\n  function recordStage(uint256 _productId, SupplyChainStage _stage, address _productOwner) public \r\n    onlyOwner \r\n    verifyIfProductIdExists(_productId)\r\n  {\r\n    ProductStage memory newStage = ProductStage(_productId, _stage, _productOwner, block.timestamp);\r\n    productStages[_productId].push(newStage);\r\n  }\r\n  \r\n  function getProductStagesCount(uint256 _productId) public view \r\n    verifyIfProductIdExists(_productId) \r\n    returns (uint256) \r\n  {\r\n    return productStages[_productId].length;\r\n  }\r\n  \r\n  function getProductStage(uint256 _productId, uint256 _stageIndex) public view \r\n    verifyIfProductIdExists(_productId) \r\n    returns (uint256, SupplyChainStage, address, uint256) \r\n  {\r\n    require(_stageIndex < productStages[_productId].length, \"Stage does not exist\");\r\n    ProductStage memory stage = productStages[_productId][_stageIndex];\r\n    return (stage.productId, stage.stage, stage.productOwner, stage.timestamp);\r\n  }\r\n\r\n  function getProductOwner(uint256 _productId) public view \r\n    verifyIfProductIdExists(_productId) \r\n    returns (address) \r\n  {\r\n    uint256 lastStage = getProductStagesCount(_productId);\r\n    address lastProductOwner;\r\n    (,,lastProductOwner,) = getProductStage(_productId, lastStage - 1);\r\n    return lastProductOwner;\r\n  }\r\n}\r\n",
  "sourcePath": "C:\\Users\\jaded\\Documents\\LAB\\foodtraceability\\smart-contracts\\contracts\\supplyChain.sol",
  "compiler": {
    "name": "solc",
    "version": "0.8.21+commit.d9974bed.Emscripten.clang"
  },
  "schemaVersion": "3.4.15",
  "updatedAt": "2023-08-28T20:19:48.844Z",
  "devdoc": {
    "details": "The SupplyChain contract manages the traceability of the supply chain.  It connects the different actors and products throughout the process.",
    "kind": "dev",
    "methods": {
      "transferOwnership(address)": {
        "details": "Allows the current owner to transfer control of the contract to a newOwner.",
        "params": {
          "newOwner": "The address to transfer ownership to."
        }
      }
    },
    "title": "SupplyChain",
    "version": 1
  },
  "userdoc": {
    "kind": "user",
    "methods": {},
    "version": 1
  }
}