{
  "contractName": "ProductRegistry",
  "abi": [
    {
      "anonymous": false,
      "inputs": [
        {
          "indexed": true,
          "internalType": "address",
          "name": "previousOwner",
          "type": "address"
        },
        {
          "indexed": true,
          "internalType": "address",
          "name": "newOwner",
          "type": "address"
        }
      ],
      "name": "OwnershipTransferred",
      "type": "event"
    },
    {
      "inputs": [],
      "name": "owner",
      "outputs": [
        {
          "internalType": "address",
          "name": "",
          "type": "address"
        }
      ],
      "stateMutability": "view",
      "type": "function"
    },
    {
      "inputs": [
        {
          "internalType": "uint256",
          "name": "",
          "type": "uint256"
        }
      ],
      "name": "products",
      "outputs": [
        {
          "internalType": "uint256",
          "name": "productId",
          "type": "uint256"
        },
        {
          "internalType": "string",
          "name": "name",
          "type": "string"
        },
        {
          "internalType": "string",
          "name": "origin",
          "type": "string"
        },
        {
          "internalType": "uint256",
          "name": "quantity",
          "type": "uint256"
        },
        {
          "internalType": "enum ProductRegistry.Unit",
          "name": "unit",
          "type": "uint8"
        },
        {
          "internalType": "uint256",
          "name": "timestamp",
          "type": "uint256"
        }
      ],
      "stateMutability": "view",
      "type": "function"
    },
    {
      "inputs": [
        {
          "internalType": "address",
          "name": "newOwner",
          "type": "address"
        }
      ],
      "name": "transferOwnership",
      "outputs": [],
      "stateMutability": "nonpayable",
      "type": "function"
    },
    {
      "inputs": [
        {
          "internalType": "string",
          "name": "_name",
          "type": "string"
        },
        {
          "internalType": "string",
          "name": "_origin",
          "type": "string"
        },
        {
          "internalType": "uint256",
          "name": "_quantity",
          "type": "uint256"
        },
        {
          "internalType": "enum ProductRegistry.Unit",
          "name": "_unit",
          "type": "uint8"
        }
      ],
      "name": "addProduct",
      "outputs": [],
      "stateMutability": "nonpayable",
      "type": "function"
    },
    {
      "inputs": [],
      "name": "getProductCount",
      "outputs": [
        {
          "internalType": "uint256",
          "name": "",
          "type": "uint256"
        }
      ],
      "stateMutability": "view",
      "type": "function"
    },
    {
      "inputs": [
        {
          "internalType": "uint256",
          "name": "_productId",
          "type": "uint256"
        }
      ],
      "name": "getProduct",
      "outputs": [
        {
          "internalType": "uint256",
          "name": "",
          "type": "uint256"
        },
        {
          "internalType": "string",
          "name": "",
          "type": "string"
        },
        {
          "internalType": "string",
          "name": "",
          "type": "string"
        },
        {
          "internalType": "uint256",
          "name": "",
          "type": "uint256"
        },
        {
          "internalType": "enum ProductRegistry.Unit",
          "name": "",
          "type": "uint8"
        },
        {
          "internalType": "uint256",
          "name": "",
          "type": "uint256"
        }
      ],
      "stateMutability": "view",
      "type": "function"
    }
  ],
  "bytecode": "0x608060405234801561000f575f80fd5b50335f806101000a81548173ffffffffffffffffffffffffffffffffffffffff021916908373ffffffffffffffffffffffffffffffffffffffff1602179055506110b98061005c5f395ff3fe608060405234801561000f575f80fd5b5060043610610060575f3560e01c80634a348da9146100645780637944608a146100825780637acc0b201461009e5780638da5cb5b146100d3578063b9db15b4146100f1578063f2fde38b14610126575b5f80fd5b61006c610142565b6040516100799190610816565b60405180910390f35b61009c600480360381019061009791906109c9565b61014e565b005b6100b860048036038101906100b39190610a65565b6102d5565b6040516100ca96959493929190610b7d565b60405180910390f35b6100db610434565b6040516100e89190610c29565b60405180910390f35b61010b60048036038101906101069190610a65565b610457565b60405161011d96959493929190610b7d565b60405180910390f35b610140600480360381019061013b9190610c6c565b61067f565b005b5f600180549050905090565b5f8054906101000a900473ffffffffffffffffffffffffffffffffffffffff1673ffffffffffffffffffffffffffffffffffffffff163373ffffffffffffffffffffffffffffffffffffffff16146101db576040517f08c379a00000000000000000000000000000000000000000000000000000000081526004016101d290610d07565b60405180910390fd5b5f60018054905090505f4290505f6040518060c0016040528084815260200188815260200187815260200186815260200185600881111561021f5761021e610b0a565b5b8152602001838152509050600181908060018154018082558091505060019003905f5260205f2090600602015f909190919091505f820151815f015560208201518160010190816102709190610f1f565b5060408201518160020190816102869190610f1f565b50606082015181600301556080820151816004015f6101000a81548160ff021916908360088111156102bb576102ba610b0a565b5b021790555060a08201518160050155505050505050505050565b600181815481106102e4575f80fd5b905f5260205f2090600602015f91509050805f01549080600101805461030990610d52565b80601f016020809104026020016040519081016040528092919081815260200182805461033590610d52565b80156103805780601f1061035757610100808354040283529160200191610380565b820191905f5260205f20905b81548152906001019060200180831161036357829003601f168201915b50505050509080600201805461039590610d52565b80601f01602080910402602001604051908101604052809291908181526020018280546103c190610d52565b801561040c5780601f106103e35761010080835404028352916020019161040c565b820191905f5260205f20905b8154815290600101906020018083116103ef57829003601f168201915b505050505090806003015490806004015f9054906101000a900460ff16908060050154905086565b5f8054906101000a900473ffffffffffffffffffffffffffffffffffffffff1681565b5f6060805f805f8660018054905081106104a6576040517f08c379a000000000000000000000000000000000000000000000000000000000815260040161049d90611038565b60405180910390fd5b5f600189815481106104bb576104ba611056565b5b905f5260205f2090600602016040518060c00160405290815f82015481526020016001820180546104eb90610d52565b80601f016020809104026020016040519081016040528092919081815260200182805461051790610d52565b80156105625780601f1061053957610100808354040283529160200191610562565b820191905f5260205f20905b81548152906001019060200180831161054557829003601f168201915b5050505050815260200160028201805461057b90610d52565b80601f01602080910402602001604051908101604052809291908181526020018280546105a790610d52565b80156105f25780601f106105c9576101008083540402835291602001916105f2565b820191905f5260205f20905b8154815290600101906020018083116105d557829003601f168201915b5050505050815260200160038201548152602001600482015f9054906101000a900460ff16600881111561062957610628610b0a565b5b600881111561063b5761063a610b0a565b5b81526020016005820154815250509050805f015181602001518260400151836060015184608001518560a00151975097509750975097509750505091939550919395565b5f8054906101000a900473ffffffffffffffffffffffffffffffffffffffff1673ffffffffffffffffffffffffffffffffffffffff163373ffffffffffffffffffffffffffffffffffffffff161461070c576040517f08c379a000000000000000000000000000000000000000000000000000000000815260040161070390610d07565b60405180910390fd5b5f73ffffffffffffffffffffffffffffffffffffffff168173ffffffffffffffffffffffffffffffffffffffff1603610743575f80fd5b8073ffffffffffffffffffffffffffffffffffffffff165f8054906101000a900473ffffffffffffffffffffffffffffffffffffffff1673ffffffffffffffffffffffffffffffffffffffff167f8be0079c531659141344cd1fd0a4f28419497f9722a3daafe3b4186f6b6457e060405160405180910390a3805f806101000a81548173ffffffffffffffffffffffffffffffffffffffff021916908373ffffffffffffffffffffffffffffffffffffffff16021790555050565b5f819050919050565b610810816107fe565b82525050565b5f6020820190506108295f830184610807565b92915050565b5f604051905090565b5f80fd5b5f80fd5b5f80fd5b5f80fd5b5f601f19601f8301169050919050565b7f4e487b71000000000000000000000000000000000000000000000000000000005f52604160045260245ffd5b61088e82610848565b810181811067ffffffffffffffff821117156108ad576108ac610858565b5b80604052505050565b5f6108bf61082f565b90506108cb8282610885565b919050565b5f67ffffffffffffffff8211156108ea576108e9610858565b5b6108f382610848565b9050602081019050919050565b828183375f83830152505050565b5f61092061091b846108d0565b6108b6565b90508281526020810184848401111561093c5761093b610844565b5b610947848285610900565b509392505050565b5f82601f83011261096357610962610840565b5b813561097384826020860161090e565b91505092915050565b610985816107fe565b811461098f575f80fd5b50565b5f813590506109a08161097c565b92915050565b600981106109b2575f80fd5b50565b5f813590506109c3816109a6565b92915050565b5f805f80608085870312156109e1576109e0610838565b5b5f85013567ffffffffffffffff8111156109fe576109fd61083c565b5b610a0a8782880161094f565b945050602085013567ffffffffffffffff811115610a2b57610a2a61083c565b5b610a378782880161094f565b9350506040610a4887828801610992565b9250506060610a59878288016109b5565b91505092959194509250565b5f60208284031215610a7a57610a79610838565b5b5f610a8784828501610992565b91505092915050565b5f81519050919050565b5f82825260208201905092915050565b5f5b83811015610ac7578082015181840152602081019050610aac565b5f8484015250505050565b5f610adc82610a90565b610ae68185610a9a565b9350610af6818560208601610aaa565b610aff81610848565b840191505092915050565b7f4e487b71000000000000000000000000000000000000000000000000000000005f52602160045260245ffd5b60098110610b4857610b47610b0a565b5b50565b5f819050610b5882610b37565b919050565b5f610b6782610b4b565b9050919050565b610b7781610b5d565b82525050565b5f60c082019050610b905f830189610807565b8181036020830152610ba28188610ad2565b90508181036040830152610bb68187610ad2565b9050610bc56060830186610807565b610bd26080830185610b6e565b610bdf60a0830184610807565b979650505050505050565b5f73ffffffffffffffffffffffffffffffffffffffff82169050919050565b5f610c1382610bea565b9050919050565b610c2381610c09565b82525050565b5f602082019050610c3c5f830184610c1a565b92915050565b610c4b81610c09565b8114610c55575f80fd5b50565b5f81359050610c6681610c42565b92915050565b5f60208284031215610c8157610c80610838565b5b5f610c8e84828501610c58565b91505092915050565b7f4f6e6c7920746865206f776e65722063616e20706572666f726d2074686973205f8201527f616374696f6e0000000000000000000000000000000000000000000000000000602082015250565b5f610cf1602683610a9a565b9150610cfc82610c97565b604082019050919050565b5f6020820190508181035f830152610d1e81610ce5565b9050919050565b7f4e487b71000000000000000000000000000000000000000000000000000000005f52602260045260245ffd5b5f6002820490506001821680610d6957607f821691505b602082108103610d7c57610d7b610d25565b5b50919050565b5f819050815f5260205f209050919050565b5f6020601f8301049050919050565b5f82821b905092915050565b5f60088302610dde7fffffffffffffffffffffffffffffffffffffffffffffffffffffffffffffffff82610da3565b610de88683610da3565b95508019841693508086168417925050509392505050565b5f819050919050565b5f610e23610e1e610e19846107fe565b610e00565b6107fe565b9050919050565b5f819050919050565b610e3c83610e09565b610e50610e4882610e2a565b848454610daf565b825550505050565b5f90565b610e64610e58565b610e6f818484610e33565b505050565b5b81811015610e9257610e875f82610e5c565b600181019050610e75565b5050565b601f821115610ed757610ea881610d82565b610eb184610d94565b81016020851015610ec0578190505b610ed4610ecc85610d94565b830182610e74565b50505b505050565b5f82821c905092915050565b5f610ef75f1984600802610edc565b1980831691505092915050565b5f610f0f8383610ee8565b9150826002028217905092915050565b610f2882610a90565b67ffffffffffffffff811115610f4157610f40610858565b5b610f4b8254610d52565b610f56828285610e96565b5f60209050601f831160018114610f87575f8415610f75578287015190505b610f7f8582610f04565b865550610fe6565b601f198416610f9586610d82565b5f5b82811015610fbc57848901518255600182019150602085019450602081019050610f97565b86831015610fd95784890151610fd5601f891682610ee8565b8355505b6001600288020188555050505b505050505050565b7f50726f6475637420646f6573206e6f74206578697374000000000000000000005f82015250565b5f611022601683610a9a565b915061102d82610fee565b602082019050919050565b5f6020820190508181035f83015261104f81611016565b9050919050565b7f4e487b71000000000000000000000000000000000000000000000000000000005f52603260045260245ffdfea26469706673582212207f33d0ddc39574e9401074ce2c6ccaf504ba3faf6ecb629b5d8a31b0278ff20264736f6c63430008150033",
  "immutableReferences": {},
  "source": "// SPDX-License-Identifier: MIT\r\npragma solidity ^0.8.21;\r\nimport \"./ownable.sol\";\r\n\r\n/**\r\n * @title ProductRegistry\r\n * @dev The ProductRegistry contract is used to register and manage the products.\r\n */\r\ncontract ProductRegistry is Ownable {\r\n\r\n  enum Unit { Kg, Gram, Pound, Ounce, Ton, Liter, Milliliter, Gallon, Piece }\r\n    \r\n  struct Product {\r\n    uint256 productId;\r\n    string name;\r\n    string origin;\r\n    uint256 quantity;\r\n    Unit unit;\r\n    uint256 timestamp;\r\n  }\r\n  \r\n  Product[] public products;\r\n\r\n  modifier verifyIfProductIdExists(uint256 _id) {\r\n    require(_id < products.length, \"Product does not exist\");\r\n    _;\r\n  }\r\n  \r\n  function addProduct(string memory _name, string memory _origin, uint256 _quantity, Unit _unit) public onlyOwner {\r\n    uint256 productId = products.length;\r\n    uint256 timestamp = block.timestamp;\r\n    Product memory newProduct = Product(productId, _name, _origin, _quantity, _unit, timestamp);\r\n    products.push(newProduct);\r\n  }\r\n  \r\n  function getProductCount() public view returns (uint256) {\r\n    return products.length;\r\n  }\r\n  \r\n  function getProduct(uint256 _productId) public view \r\n    verifyIfProductIdExists(_productId)\r\n    returns (uint256, string memory, string memory, uint256, Unit, uint256)\r\n  {\r\n    Product memory product = products[_productId];\r\n    return (product.productId, product.name, product.origin, product.quantity, product.unit, product.timestamp);\r\n  }\r\n}\r\n",
  "sourcePath": "C:\\Users\\jaded\\Documents\\LAB\\foodtraceability\\smart-contracts\\contracts\\productRegistry.sol",
  "compiler": {
    "name": "solc",
    "version": "0.8.21+commit.d9974bed.Emscripten.clang"
  },
  "schemaVersion": "3.4.15",
  "updatedAt": "2023-09-09T09:04:52.773Z",
  "devdoc": {
    "details": "The ProductRegistry contract is used to register and manage the products.",
    "kind": "dev",
    "methods": {
      "transferOwnership(address)": {
        "details": "Allows the current owner to transfer control of the contract to a newOwner.",
        "params": {
          "newOwner": "The address to transfer ownership to."
        }
      }
    },
    "title": "ProductRegistry",
    "version": 1
  },
  "userdoc": {
    "kind": "user",
    "methods": {},
    "version": 1
  }
}