{
  "contractName": "UserProfiles",
  "abi": [
    {
      "anonymous": false,
      "inputs": [
        {
          "indexed": true,
          "internalType": "address",
          "name": "previousOwner",
          "type": "address"
        },
        {
          "indexed": true,
          "internalType": "address",
          "name": "newOwner",
          "type": "address"
        }
      ],
      "name": "OwnershipTransferred",
      "type": "event"
    },
    {
      "inputs": [],
      "name": "owner",
      "outputs": [
        {
          "internalType": "address",
          "name": "",
          "type": "address"
        }
      ],
      "stateMutability": "view",
      "type": "function"
    },
    {
      "inputs": [
        {
          "internalType": "address",
          "name": "newOwner",
          "type": "address"
        }
      ],
      "name": "transferOwnership",
      "outputs": [],
      "stateMutability": "nonpayable",
      "type": "function"
    },
    {
      "inputs": [
        {
          "internalType": "address",
          "name": "",
          "type": "address"
        }
      ],
      "name": "userProfile",
      "outputs": [
        {
          "internalType": "string",
          "name": "name",
          "type": "string"
        },
        {
          "internalType": "string",
          "name": "location",
          "type": "string"
        },
        {
          "internalType": "enum UserProfiles.Role",
          "name": "role",
          "type": "uint8"
        }
      ],
      "stateMutability": "view",
      "type": "function"
    },
    {
      "inputs": [
        {
          "internalType": "string",
          "name": "_name",
          "type": "string"
        },
        {
          "internalType": "string",
          "name": "_location",
          "type": "string"
        },
        {
          "internalType": "enum UserProfiles.Role",
          "name": "_role",
          "type": "uint8"
        },
        {
          "internalType": "address",
          "name": "_user",
          "type": "address"
        }
      ],
      "name": "setUserProfile",
      "outputs": [],
      "stateMutability": "nonpayable",
      "type": "function"
    },
    {
      "inputs": [
        {
          "internalType": "address",
          "name": "_user",
          "type": "address"
        }
      ],
      "name": "getUserProfile",
      "outputs": [
        {
          "internalType": "string",
          "name": "userName",
          "type": "string"
        },
        {
          "internalType": "enum UserProfiles.Role",
          "name": "userRole",
          "type": "uint8"
        }
      ],
      "stateMutability": "view",
      "type": "function"
    }
  ],
  "bytecode": "0x608060405234801561000f575f80fd5b50335f806101000a81548173ffffffffffffffffffffffffffffffffffffffff021916908373ffffffffffffffffffffffffffffffffffffffff160217905550610f178061005c5f395ff3fe608060405234801561000f575f80fd5b5060043610610055575f3560e01c80631c8e89621461005957806345ac06101461008b5780638da5cb5b146100a7578063987ee156146100c5578063f2fde38b146100f6575b5f80fd5b610073600480360381019061006e91906107d5565b610112565b604051610082939291906108fd565b60405180910390f35b6100a560048036038101906100a09190610a8f565b610250565b005b6100af61040e565b6040516100bc9190610b3a565b60405180910390f35b6100df60048036038101906100da91906107d5565b610431565b6040516100ed929190610b53565b60405180910390f35b610110600480360381019061010b91906107d5565b6105eb565b005b6001602052805f5260405f205f91509050805f01805461013190610bae565b80601f016020809104026020016040519081016040528092919081815260200182805461015d90610bae565b80156101a85780601f1061017f576101008083540402835291602001916101a8565b820191905f5260205f20905b81548152906001019060200180831161018b57829003601f168201915b5050505050908060010180546101bd90610bae565b80601f01602080910402602001604051908101604052809291908181526020018280546101e990610bae565b80156102345780601f1061020b57610100808354040283529160200191610234565b820191905f5260205f20905b81548152906001019060200180831161021757829003601f168201915b505050505090806002015f9054906101000a900460ff16905083565b5f8054906101000a900473ffffffffffffffffffffffffffffffffffffffff1673ffffffffffffffffffffffffffffffffffffffff163373ffffffffffffffffffffffffffffffffffffffff16146102dd576040517f08c379a00000000000000000000000000000000000000000000000000000000081526004016102d490610c4e565b60405180910390fd5b5f60405180606001604052808681526020018581526020018460068111156103085761030761088a565b5b81525090508060015f8473ffffffffffffffffffffffffffffffffffffffff1673ffffffffffffffffffffffffffffffffffffffff1681526020019081526020015f205f820151815f01908161035e9190610e12565b5060208201518160010190816103749190610e12565b506040820151816002015f6101000a81548160ff0219169083600681111561039f5761039e61088a565b5b0217905550905050600282908060018154018082558091505060019003905f5260205f20015f9091909190916101000a81548173ffffffffffffffffffffffffffffffffffffffff021916908373ffffffffffffffffffffffffffffffffffffffff1602179055505050505050565b5f8054906101000a900473ffffffffffffffffffffffffffffffffffffffff1681565b60605f8060015f8573ffffffffffffffffffffffffffffffffffffffff1673ffffffffffffffffffffffffffffffffffffffff1681526020019081526020015f206040518060600160405290815f8201805461048c90610bae565b80601f01602080910402602001604051908101604052809291908181526020018280546104b890610bae565b80156105035780601f106104da57610100808354040283529160200191610503565b820191905f5260205f20905b8154815290600101906020018083116104e657829003601f168201915b5050505050815260200160018201805461051c90610bae565b80601f016020809104026020016040519081016040528092919081815260200182805461054890610bae565b80156105935780601f1061056a57610100808354040283529160200191610593565b820191905f5260205f20905b81548152906001019060200180831161057657829003601f168201915b50505050508152602001600282015f9054906101000a900460ff1660068111156105c0576105bf61088a565b5b60068111156105d2576105d161088a565b5b815250509050805f015181604001519250925050915091565b5f8054906101000a900473ffffffffffffffffffffffffffffffffffffffff1673ffffffffffffffffffffffffffffffffffffffff163373ffffffffffffffffffffffffffffffffffffffff1614610678576040517f08c379a000000000000000000000000000000000000000000000000000000000815260040161066f90610c4e565b60405180910390fd5b5f73ffffffffffffffffffffffffffffffffffffffff168173ffffffffffffffffffffffffffffffffffffffff16036106af575f80fd5b8073ffffffffffffffffffffffffffffffffffffffff165f8054906101000a900473ffffffffffffffffffffffffffffffffffffffff1673ffffffffffffffffffffffffffffffffffffffff167f8be0079c531659141344cd1fd0a4f28419497f9722a3daafe3b4186f6b6457e060405160405180910390a3805f806101000a81548173ffffffffffffffffffffffffffffffffffffffff021916908373ffffffffffffffffffffffffffffffffffffffff16021790555050565b5f604051905090565b5f80fd5b5f80fd5b5f73ffffffffffffffffffffffffffffffffffffffff82169050919050565b5f6107a48261077b565b9050919050565b6107b48161079a565b81146107be575f80fd5b50565b5f813590506107cf816107ab565b92915050565b5f602082840312156107ea576107e9610773565b5b5f6107f7848285016107c1565b91505092915050565b5f81519050919050565b5f82825260208201905092915050565b5f5b8381101561083757808201518184015260208101905061081c565b5f8484015250505050565b5f601f19601f8301169050919050565b5f61085c82610800565b610866818561080a565b935061087681856020860161081a565b61087f81610842565b840191505092915050565b7f4e487b71000000000000000000000000000000000000000000000000000000005f52602160045260245ffd5b600781106108c8576108c761088a565b5b50565b5f8190506108d8826108b7565b919050565b5f6108e7826108cb565b9050919050565b6108f7816108dd565b82525050565b5f6060820190508181035f8301526109158186610852565b905081810360208301526109298185610852565b905061093860408301846108ee565b949350505050565b5f80fd5b5f80fd5b7f4e487b71000000000000000000000000000000000000000000000000000000005f52604160045260245ffd5b61097e82610842565b810181811067ffffffffffffffff8211171561099d5761099c610948565b5b80604052505050565b5f6109af61076a565b90506109bb8282610975565b919050565b5f67ffffffffffffffff8211156109da576109d9610948565b5b6109e382610842565b9050602081019050919050565b828183375f83830152505050565b5f610a10610a0b846109c0565b6109a6565b905082815260208101848484011115610a2c57610a2b610944565b5b610a378482856109f0565b509392505050565b5f82601f830112610a5357610a52610940565b5b8135610a638482602086016109fe565b91505092915050565b60078110610a78575f80fd5b50565b5f81359050610a8981610a6c565b92915050565b5f805f8060808587031215610aa757610aa6610773565b5b5f85013567ffffffffffffffff811115610ac457610ac3610777565b5b610ad087828801610a3f565b945050602085013567ffffffffffffffff811115610af157610af0610777565b5b610afd87828801610a3f565b9350506040610b0e87828801610a7b565b9250506060610b1f878288016107c1565b91505092959194509250565b610b348161079a565b82525050565b5f602082019050610b4d5f830184610b2b565b92915050565b5f6040820190508181035f830152610b6b8185610852565b9050610b7a60208301846108ee565b9392505050565b7f4e487b71000000000000000000000000000000000000000000000000000000005f52602260045260245ffd5b5f6002820490506001821680610bc557607f821691505b602082108103610bd857610bd7610b81565b5b50919050565b7f4f6e6c7920746865206f776e65722063616e20706572666f726d2074686973205f8201527f616374696f6e0000000000000000000000000000000000000000000000000000602082015250565b5f610c3860268361080a565b9150610c4382610bde565b604082019050919050565b5f6020820190508181035f830152610c6581610c2c565b9050919050565b5f819050815f5260205f209050919050565b5f6020601f8301049050919050565b5f82821b905092915050565b5f60088302610cc87fffffffffffffffffffffffffffffffffffffffffffffffffffffffffffffffff82610c8d565b610cd28683610c8d565b95508019841693508086168417925050509392505050565b5f819050919050565b5f819050919050565b5f610d16610d11610d0c84610cea565b610cf3565b610cea565b9050919050565b5f819050919050565b610d2f83610cfc565b610d43610d3b82610d1d565b848454610c99565b825550505050565b5f90565b610d57610d4b565b610d62818484610d26565b505050565b5b81811015610d8557610d7a5f82610d4f565b600181019050610d68565b5050565b601f821115610dca57610d9b81610c6c565b610da484610c7e565b81016020851015610db3578190505b610dc7610dbf85610c7e565b830182610d67565b50505b505050565b5f82821c905092915050565b5f610dea5f1984600802610dcf565b1980831691505092915050565b5f610e028383610ddb565b9150826002028217905092915050565b610e1b82610800565b67ffffffffffffffff811115610e3457610e33610948565b5b610e3e8254610bae565b610e49828285610d89565b5f60209050601f831160018114610e7a575f8415610e68578287015190505b610e728582610df7565b865550610ed9565b601f198416610e8886610c6c565b5f5b82811015610eaf57848901518255600182019150602085019450602081019050610e8a565b86831015610ecc5784890151610ec8601f891682610ddb565b8355505b6001600288020188555050505b50505050505056fea26469706673582212203fef1f94ea4aa9e608ac9db8b1f6dfc849e05aa2506805874de350b73ab0972264736f6c63430008150033",
  "immutableReferences": {},
  "source": "// SPDX-License-Identifier: MIT\r\npragma solidity ^0.8.21;\r\nimport \"./ownable.sol\";\r\n\r\n/**\r\n * @title UserProfiles \r\n * @dev The UserProfiles contract may store information about different users, including their roles, contact details, etc.\r\n */\r\ncontract UserProfiles is Ownable {\r\n\r\n  enum Role { None, Farmer, Distributor, Retailer, Consumer, Laboratory, Auditor }\r\n  \r\n  struct UserProfile {\r\n    string name;\r\n    string location;\r\n    Role role;\r\n  }\r\n\r\n  mapping(address => UserProfile) public userProfile;\r\n  address[] users;\r\n\r\n  modifier onlyRole(address _user, Role _role) {\r\n    Role userRole;\r\n    (,userRole) = getUserProfile(_user);\r\n    require(userRole == _role, \"You don't have the required role\");\r\n    _;\r\n  }\r\n\r\n  function setUserProfile(string memory _name, string memory _location, Role _role, address _user) public onlyOwner {\r\n    UserProfile memory user = UserProfile(_name, _location, _role);\r\n    userProfile[_user] = user;\r\n    users.push(_user);\r\n  }\r\n\r\n  function getUserProfile(address _user) public view returns (string memory userName, Role userRole) {\r\n    UserProfile memory user = userProfile[_user];\r\n    return (user.name, user.role);\r\n  }\r\n}",
  "sourcePath": "C:\\Users\\jaded\\Documents\\LAB\\foodtraceability\\smart-contracts\\contracts\\userProfiles.sol",
  "compiler": {
    "name": "solc",
    "version": "0.8.21+commit.d9974bed.Emscripten.clang"
  },
  "schemaVersion": "3.4.15",
  "updatedAt": "2023-09-09T09:04:52.792Z",
  "devdoc": {
    "details": "The UserProfiles contract may store information about different users, including their roles, contact details, etc.",
    "kind": "dev",
    "methods": {
      "transferOwnership(address)": {
        "details": "Allows the current owner to transfer control of the contract to a newOwner.",
        "params": {
          "newOwner": "The address to transfer ownership to."
        }
      }
    },
    "title": "UserProfiles ",
    "version": 1
  },
  "userdoc": {
    "kind": "user",
    "methods": {},
    "version": 1
  }
}